:020000007FC6B9
:020CFE000000F4
:100D000012C021C020C01FC01EC01DC01CC01BC0FF
:100D10001AC019C018C017C016C015C014C013C01F
:100D200012C011C010C011241FBECFE5D1E0DEBF3C
:100D3000CDBF20E0A0E6B0E001C01D92A83EB20702
:100D4000E1F738D143C1DCCF1ABAD9CF0895BE9AA2
:100D500084E1C69AEFE3F3E03197F1F700C00000B9
:100D6000C698EFE3F3E03197F1F700C0000081503F
:100D700081F7BC9AC49ABE98C69A0895C498EFE3C6
:100D8000F3E03197F1F700C0000098E080FF02C067
:100D9000C49A01C0C498EFE3F3E03197F1F700C0C3
:100DA00000008695915091F7C49A8FE393E00197E4
:100DB000F1F700C000000895CF93DF9300D0CDB7C6
:100DC000DEB71A82198289819A8101969A83898372
:100DD000892B31F0000000000000B699F4CF01C06B
:100DE000B3CF0F900F90DF91CF910895E5DFDB9A9D
:100DF0008FED94E00197F1F700C0000098E080913A
:100E0000E30086958093E300B69B03C080688093DF
:100E1000E300EFE3F3E03197F1F700C000009150F9
:100E200071F7DB9808951F93CF93DF93C1E6D0E06D
:100E300011E0DCDF8091E300180F899380E0C33E6E
:100E4000D807B9F7D3DF8091E300181319C0409198
:100E500060002091610030E0842F90E00196281717
:100E6000390771F44A3160F47DD086E087DF8091E4
:100E700060008F5F80936000DF91CF911F91089594
:100E800085E1DF91CF911F9179CFB0DF8091E300B1
:100E900075DF8091E3008B37A9F485E16FDFA6DF72
:100EA0008091E300813011F4BEDFF9CF8430B9F7CF
:100EB000809160008A3120F489E18093600052D0F3
:100EC00086E05CCF089523E008D021E106C021E050
:100ED00004C025E002D021E100C01F92E091E700AC
:100EE000F091E60007B600FCFDCFE199FECF082E99
:100EF000162E27BFE895000000001F9008951F934D
:100F0000CF93DF9380916000982F979599279795BD
:100F10009093E70086958093E600C0E0D0E0C0386B
:100F2000D105E1F01C2F1F7309F4CDDFFE01EF594D
:100F3000FF4F63818281CBDF1E3349F41091E700BC
:100F4000812F807C8093E700C4DF1093E7008091BD
:100F5000E7008E5F8093E7002296E1CFDF91CF918B
:100F60001F9108958091600081110FC080916300EE
:100F70008093E4008FE78093630080916400809306
:100F8000E50086EC8093640014C0893191F480916F
:100F9000E5008F7090E0982F88272091E400822B45
:100FA0008F5796408093E100892F8F70806C8093DB
:100FB000E200A5CFD39ACBDE19DF8091E300DEDE1D
:100FC0008091E3008B3709F460DFBECEF894FFCF49
:0400000300000D00EC
:00000001FF
